:100000000C94A3070C94DB070C94DB070C94702A68
:100010000C94DB070C94DB070C94DB070C94DB07D8
:100020000C94DB070C94DB070C942A180C94E6174D
:100030000C945D230C94DB070C94DB070C94DB071A
:100040000C94DB070C94DB070C94DB070C94DB07A8
:100050000C94DB070C9403190C94DB070C94DB075E
:100060000C94DB070C94DB070C94DB070C94DB0788
:100070000C94DB070C94DB070C94DB070C94DB0778
:100080000C94DB070C94DB070C94DB070C94DB0768
:100090000C94DB070C94DB070C94DB070C94DB0758
:1000A0000C94DB070C94DB070C94DB0700000000CA
:1000B0001700150008001A0014002B0000000000B3
:1000C0000A000900070016000400296126022F001B
:1000D0000500190006001B001D00E100DA5CE300CA
:1000E0000251E20000000451000000000000000086
:1000F0001C0018000C00120013002D00000000006E
:100100000B000D000E000F003302340027023000F8
:10011000110010003600370038002E002A002C0095
:100120000151E60000000351000000000000000043
:100130000100610060005F0001000100000000009C
:1001400001005E005D005C00010001000100010093
:1001500001005B005A00590001000100010001008C
:10016000010062000000010000000000000000002B
:100170000100010001000100A900000000000000D2
:100180005000510052004F00AA0000000100010081
:100190000100010001000100000000000100010059
:1001A000010001000000010000000000000000004C
:1001B0000100010001000100010001000000000039
:1001C0000100010001000100010001000100010027
:1001D0000100010001000100010001000100010017
:1001E000010001000000010000000000000000000C
:1001F0003502350031003102AE00A90000000000D8
:100200001E021F02200221023300AA000100010089
:100210002202230224022502AC00AB0001000100EF
:1002200001000100000001000000000000000000CB
:1002300001000100010001000100010000000000B8
:1002400001000100010001000100010001000100A6
:100250000100010001000100010001000100010096
:10026000010001000000010000000000000000008B
:100270000100010001000100010001000000000078
:100280000100010001000100010001000100010066
:100290000100010001000100010001000100010056
:1002A000010001000000010000000000000000004B
:1002B000000000000000000000000000000000003E
:1002C000000000000000000000000000000000002E
:1002D000000000000000000000000000000000001E
:1002E000000000000000000000000000000000000E
:1002F00000000000000000000000000000000000FE
:1003000000000000000000000000000000000000ED
:1003100000000000000000000000000000000000DD
:1003200000000000000000000000000000DA128160
:10033000FFD9F1DB20A4A62EAF00A0C000A1C80009
:10034000AED580A83FD300408D14200000000000EF
:100350000000000000000000008080C0E0F0707825
:10036000383C1C1E0E0E0E07070707070707070776
:10037000070707070707070E0E0E1E1C3C3878708C
:10038000F0E0C080800000000000000000000000DD
:10039000000000000000000000000000000000005D
:1003A000000000000000000000000000000000004D
:1003B000000000000000000000000000000000003D
:1003C000000000000000000000000000000000002D
:1003D000000000C0E0F07C3E1F0F07030180C0E07A
:1003E000F078383C1C1E0E0E070787E77F1FFFFFC3
:1003F0001F7FE78707070E0E1E1C3C3878F0E0C011
:10040000800103070F1F3E7CF0E0C00000000000E9
:1004100000000000000000000000000000000000DC
:1004200000000000000000000000000000000000CC
:1004300000000000000000000000000000000000BC
:1004400000000000000000000000000000000000AC
:10045000F0FCFF1F07010000C0F0FCFEFFF7F3B146
:10046000B03030303030303078FE87010000FFFF90
:1004700000000187FE7830303030303030B0B1F3DA
:10048000F7FFFEFCF0C0000001071FFFFCF00000BA
:10049000000000000000000000000000000000005C
:1004A000000000000000000000000000000000004C
:1004B000000000000000000000000000000000003C
:1004C000000000000000000000000000000000FF2D
:1004D000FFFF0000000000FEFFFF0101071E78E1A2
:1004E00081838386868C8C9898B1B7FEF8E0FFFFF5
:1004F000E0F8FEB7B198988C8C8686838381E1788A
:100500001E070101FFFFFE0000000000FFFFFF00CB
:10051000000000FFFF0000C0C030300000F0F0001D
:100520000000000000F0F00000F0F0C0C0303030FB
:1005300030C0C000003030F3F30000000000003095
:100540003030303030C0C00000000000000000FF3C
:10055000FFFF00000000007FFFFF8080E0781E8723
:1005600081C1C16161313119198DED7F1F07FFFF15
:10057000071F7FED8D191931316161C1C181871E5E
:1005800078E08080FFFF7F0000000000FFFFFF0099
:100590000000003F3F03030C0C303000000000332C
:1005A00033333333330F0F00003F3F0000000000B0
:1005B000000000000030303F3F303000000C0C33B2
:1005C00033333333333F3F000000000000000000AE
:1005D0000F3FFFF8E0800000030F3F7FFFEFCF8D5C
:1005E0000D0C0C0C0C0C0C0C1E7FE1800000FFFFAE
:1005F000000080E17F1E0C0C0C0C0C0C0C0D8DCF40
:10060000EFFF7F3F0F03000080E0F8FF3F0F000087
:1006100000000000000000000000000000000000DA
:1006200000000000000000000000000000000000CA
:1006300000000000000000000000000000000000BA
:1006400000000000000000000000000000000000AA
:1006500000000003070F3E7CF8F0E0C080010307B4
:100660000F1E1C3C38787070E0E0E1E7FEF8FFFFF9
:10067000F8FEE7E1E0E0707078383C1C1E0F0703DD
:100680000180C0E0F0F87C3E0F070300000000008E
:10069000000000000000000000000000000000005A
:1006A000000000000000000000000000000000004A
:1006B000000000000000000000000000000000003A
:1006C000000000000000000000000000000000002A
:1006D000000000000000000000010103070F0E1ED3
:1006E0001C3C3878707070E0E0E0E0E0E0E0E0E0D2
:1006F000E0E0E0E0E0E0E070707078383C1C1E0E56
:100700000F070301010000000000000000000000CE
:1007100000000000000000000000000000000000D9
:1007200000000000000000000000000000000000C9
:1007300000000000000000000000000000000000B9
:100740000000000000000000000000002020202029
:10075000202020005343524C434B200020202020D7
:10076000202020004341504C434B200020202020DB
:10077000202020004E554D4C434B2000556E6465A3
:1007800066696E65640A0041646A7573740A00469E
:10079000756E6374696F6E0A0053796D0A004E615D
:1007A000760A00436F6C656D616B2D44480A004406
:1007B000766F72616B0A005157455254590A004CCA
:1007C000617965723A2000726576320A0A004B79C7
:1007D0007269612000808182838485868788898A06
:1007E0008B8C8D8E8F9091929394A0A1A2A3A4A59F
:1007F000A6A7A8A9AAABACADAEAFB0B1B2B3B4C016
:10080000C1C2C3C4C5C6C7C8C9CACBCCCDCECFD060
:10081000D1D2D3D400000101010101010101010283
:1008200002020202020202020303030303030303A0
:10083000040404040404040505050505060606066B
:1008400006070707070708080808090909090A0A27
:100850000A0B0B0B0C0C0C0D0D0D0E0E0E0F0F0FCB
:100860001010111111121213131414151516161756
:1008700017181819191A1A1B1B1C1D1D1E1E1F20C4
:1008800020212222232424252626272829292A2B11
:100890002C2D2D2E2F303132323334353637383936
:1008A0003A3B3C3D3E3F4041424344454647484930
:1008B0004A4C4D4E4F50515354555658595A5B5D02
:1008C0005E5F616264656668696B6C6D6F707273A0
:1008D0007577787A7B7D7E8082838587888A8C8E07
:1008E0008F91939596989A9C9EA0A2A3A5A7A9AB39
:1008F000ADAFB1B3B5B7BABCBEC0C2C4C6C9CBCD2B
:10090000CFD1D4D6D8DBDDDFE2E4E7E9EBEEF0F3DC
:10091000F5F8FAFDFF00AF00AE05010980A10185E1
:100920000319012AB700150126B70095017510813A
:1009300000C0050C0901A101850419012AA00215B6
:100940000126A002950175108100C005010906A1CC
:1009500001050719E029E7150025019508750181B2
:10096000029501750881010507190029FF15002668
:10097000FF009506750881000508190129059505F0
:1009800075019102950175039101C009023B0002B6
:100990000100A0FA0904000001030101000921116E
:1009A000010001224000070581030800010904013C
:1009B000000103000000092111010001223200079B
:1009C00005820320000112010002000000081D8DB5
:1009D0009D9D02000102000116034B007900720088
:1009E000690061002000720065007600320000009E
:1009F0001003730070006C00690074006B006200EB
:100A000000000403090407087F0807003E5B4F5BF2
:100A10003E003E6B4F6B3E001C3E7C3E1C00183C73
:100A20007E3C18001C577D571C001C5E7F5E1C001E
:100A300000183C180000FFE7C3E7FF000018241867
:100A40000000FFE7DBE7FF0030483A060E002629EA
:100A500079292600407F05050700407F05253F00D6
:100A60005A3CE73C5A007F3E1C1C0800081C1C3EF8
:100A70007F0014227F2214005F5F005F5F00060981
:100A80007F017F00006689956A0060606060600099
:100A900094A2FFA2940008047E04080010207E2087
:100AA000100008082A1C0800081C2A0808001E104C
:100AB000101010000C1E0C1E0C0030383E38300098
:100AC000060E3E0E060000000000000000005F0061
:100AD0000000000700070000147F147F1400242A80
:100AE0007F2A120023130864620036495620500002
:100AF000000807030000001C224100000041221CE6
:100B000000002A1C7F1C2A0008083E0808000080FC
:100B1000703000000808080808000000606000004D
:100B20002010080402003E5149453E0000427F402B
:100B300000007249494946002141494D33001814CB
:100B4000127F10002745454539003C4A494931008C
:100B500041211109070036494949360046494929CA
:100B60001E000000140000000040340000000008D7
:100B7000142241001414141414000041221408001B
:100B80000201590906003E415D594E007C121112C6
:100B90007C007F49494936003E41414122007F4166
:100BA00041413E007F49494941007F09090901004F
:100BB0003E41415173007F0808087F0000417F419A
:100BC00000002040413F01007F08142241007F4087
:100BD000404040007F021C027F007F0408107F001D
:100BE0003E4141413E007F09090906003E41512135
:100BF0005E007F0919294600264949493200030150
:100C00007F0103003F4040403F001F2040201F0065
:100C10003F4038403F006314081463000304780425
:100C200003006159494D4300007F414141000204E6
:100C300008102000004141417F000402010204002D
:100C40004040404040000003070800002054547812
:100C500040007F2844443800384444442800384445
:100C600044287F0038545454180000087E090200BC
:100C700018A4A49C78007F080404780000447D40F8
:100C800000002040403D00007F102844000000414B
:100C90007F4000007C04780478007C08040478001D
:100CA000384444443800FC1824241800182424181C
:100CB000FC007C0804040800485454542400040434
:100CC0003F4424003C4040207C001C2040201C006D
:100CD0003C4030403C004428102844004C90909008
:100CE0007C004464544C440000083641000000007D
:100CF00077000000004136080000020102040200F3
:100D00003C2623263C00000000000000404040F04C
:100D1000F8F8FF38FFF8F83FF8F8FF38FFF8F8F078
:100D200040404000000000000080C0C0C0800000C3
:100D3000C0C08000000080C0C000C0C0000080C0F3
:100D4000C00000000000C0C0C0C0C000C0C00000A3
:100D50000000000000000000000000000000000093
:100D60000000000000000000000000000000000083
:100D70000000000000000000000000000000000073
:100D80000000000000C0F0F8FC3E1E06010000005C
:100D90007F4141417F007F4141417F000080C0E0B1
:100DA0007E5B4F5BFEC00000C000DCD7DEDEDED71E
:100DB000DC00C00000000000000000000000000097
:100DC000000000000000000000000000494949FF49
:100DD000FFFFFFE0DFBFBF00BFBFDFE0FFFFFFFFA0
:100DE00049494900000000001F3F6060E0BF1F004C
:100DF0007F7F071E381E077F7F007F7F0E1F3B719E
:100E00006000000000007F7F0C0C0C007E7E007FE5
:100E10007E0303007F7E03037E7E03037F7E000F3D
:100E20003E703C063C703E0F00327B49493F7E00DD
:100E30007F7E0303001E3F69696F260000000000EB
:100E40000000000000030F1F3F3C787060000000AE
:100E50007F4141417F007F4141417F00307B7F786E
:100E600030202030787F3B0003000F7F0F0F0F7F73
:100E70000F00030000000000000000000000000060
:100E80000000000000000000000000000101010758
:100E90000F0F7F0F7F0F0F7E0F0F7F0F7F0F0F073B
:100EA000010101000000000000000000000101003D
:100EB0000000000000000000000000000000000032
:100EC0000000000000000000000000000000000022
:100ED0000000000000000000000000000000000012
:100EE0000000000000000000000000000000000002
:100EF00000000000000000000000000000000000F2
:100F000000000000000000000000000000000000E1
:100F100000000000000000000000000000000000D1
:100F200000000000000000000000000000000000C1
:100F300000000000000000000000000000000000B1
:100F400000000000000011241FBECFEFDAE0DEBF7A
:100F5000CDBF04B603FE18C080916B0790916C075B
:100F6000A0916D07B0916E078730904BA740B04BB2
:100F700059F410926B0710926C0710926D07109243
:100F80006E07E0E0F8E3099511E0A0E0B1E0E6E0EB
:100F9000F9E502C005900D92A63CB107D9F727E00C
:100FA000A6ECB1E001C01D92AB36B207E1F70E949A
:100FB00084230C94642C0C940000E8EDF0E0808114
:100FC0008E7F80831092E2001092DA001092E1008E
:100FD000A0EEB0E08C9181608C9380818F778083CC
:100FE00019BCA7EDB0E08C918E7F8C9380818F7EB1
:100FF00080831092460308952091E4003091E5002B
:1010000095E6A9012091EC00822F817020FF06C097
:101010008091E80080FF06C080E008952091E800FC
:1010200022FD1AC080915303882389F0853089F00E
:101030008091EB0085FD0FC02091E4003091E50028
:1010400042175307F9F29150E1F684E0089582E0E7
:10105000089583E0089581E00895EF92FF920F9341
:101060001F93CF937C018B010E94FC07C82F811135
:1010700017C08091E80085FD0BC08091E8008E7755
:101080008093E8000E94FC07882399F3C82F08C0CA
:10109000F70181917F018093F1000150110949F717
:1010A0008C2FCF911F910F91FF90EF900895809119
:1010B000550387FF13C08091E80082FF06C080912E
:1010C000E8008B778093E80004C08091530381117E
:1010D000F2CF0895809153038823D9F38091E800DB
:1010E00080FFF8CF8091E8008E77ECCF982F909317
:1010F000E900242F762F50E0891731F07091EC0031
:101100002091ED005091F00021FD07C09F5F9730C6
:1011100071F78093E90081E008953091EB003E7F04
:101120003093EB003091ED003D7F3093ED00309136
:10113000EB0031603093EB007093EC002093ED00F6
:101140005093F0002091EE0027FDE0CF80E008955D
:10115000B0E0A0E0EEEAF8E00C94AA2BC8EDD0E0F5
:1011600088818F7E8883E7EDF0E0808181608083D5
:1011700084E082BF81E08093460388818E7F8883EC
:1011800002EE10E0F80110821092DA0081EEC82E13
:10119000D12CF601108288818F77888388818068BE
:1011A000888388818F7D888319BC109253031092A5
:1011B0005403109252031092510390EEE92EF12C39
:1011C000F70180818B7F808388818160888342E002
:1011D00060E080E00E947608F60180818E7F808347
:1011E000F801808181608083808188608083F7013D
:1011F00080818E7F8083888180618883CDB7DEB7D0
:10120000E8E00C94C62BFC0180915B0390915C0399
:1012100086179707A0F06115710529F49091E800F1
:101220009E779093E80090E06115710551F491115B
:1012300008C08091E80082FF34C080E00895BC01BE
:10124000F2CF809153038823C1F18530C1F18091A1
:10125000E80083FD30C08091E80082FDEACF8091F4
:10126000E80080FFE1CF8091F3002091F200382F59
:101270006115710519F02830310558F091E02830DA
:10128000310509F090E02091E8002E772093E800E6
:10129000CBCF81918093F100615071092F5F3F4F57
:1012A000E7CF80915303882341F0853041F080914E
:1012B000E80083FFBECF81E0089582E0089583E0D7
:1012C0000895089508958091480308952FB7F894DC
:1012D00060913F03709140038091410390914203DC
:1012E0002FBF08959C01FC0132969FEF80E0419151
:1012F000461751F09F3F19F4411101C0982F8F5F9D
:101300008630A9F79F3F09F40895290F311D97FDF5
:101310003A95F9016283089520913C0330913D0391
:101320002817390771F090933D0380933C03E091B7
:101330003A03F0913B03309721F00084F185E02DD2
:1013400009950895209138033091390328173907FA
:1013500071F09093390380933803E0913A03F09150
:101360003B03309721F00680F781E02D0995089521
:10137000FC01680F791F8FEF91E32191822728E00C
:1013800030E087FF09C0880F892721503109C9F74C
:10139000E617F70791F70895880FF7CFFA01811143
:1013A00001C0FB010995089580912D03982F9E7F20
:1013B00039F480912D038170826080932D0308950C
:1013C0008430B8F7089580E00895F894E82FE29506
:1013D000EF70F0E031A1282F2F7081E090E001C084
:1013E000880F2A95EAF7982F9095932391A392A1BD
:1013F000892B82A3789408959091830292FF06C06E
:10140000282F28712830F9F4877F846093FF06C065
:10141000282F28712831F1F4877E8461209184027D
:1014200020FF06C0382F38713830D9F4877F8160AB
:1014300021FF06C0282F28712831D1F4877E8161D1
:1014400094FD877E0895282F24712430F9F68B7F30
:101450008860DCCF282F2471243101F78B7E8861CE
:10146000DDCF382F3171313019F78E7F8860E0CFB2
:10147000282F2171213121F78E7E8861E1CF7830CC
:10148000B0F46830A0F498E0899FF0011124E70FD0
:10149000F11D83E0EE0FFF1F8A95E1F7E60FF11DC6
:1014A000EE0FFF1FE455FF4F85919491089580E062
:1014B00090E00895CF93DF93EC0182389105A9F174
:1014C000D8F58133910509F496C048F58932910524
:1014D00009F48AC08A9709F495C0C11522E5D2079C
:1014E00008F0B6C0C11531E5D30708F026C1C83EE3
:1014F000D10508F09CC0C03ED10560F5C83AD105C1
:1015000008F087C0C53AD10508F0EFC0C130D10559
:1015100009F12097F9F0C430D105E0F440C08533DB
:10152000910509F45AC0C997C1F68091830283706E
:1015300089F0C0EED0E00EC0833E910599F170F4C1
:10154000803E910501F1823E910539F6809183023A
:1015500082FD21C0CE01DF91CF910895863E910595
:1015600061F1873E910571F1843E910509F0B5CF97
:101570008091840281FFEECF80918302C7EED0E09C
:1015800084FD0DC0E7CF8091830280FD07C190915B
:10159000840290FFDFCFC3EED0E084FFDBCFD0E04A
:1015A000C0E0D8CF8091830282FDFBC0909184027D
:1015B00090FDBFCF84FFCECFF2CF8091830283FD19
:1015C000DDCFC8CF8091830283FDEEC0909184026D
:1015D00091FFF0CFC4EED0E0BDCF8091830285FFB4
:1015E000B9CFC9E2D0E0B6CF8091830285FFB2CFF8
:1015F000C5E3D0E0AFCF8091830286FFABCFCAE2D4
:10160000D0E0A8CF8091830286FFA4CFC1E3D0E0D1
:10161000A1CFCF3BD10518F6C85AD0E0CC0FDD1FC3
:10162000C559DE4F0990D881C02DD46493CFC11520
:1016300040E5D40708F064C0C11580E4D80708F07D
:101640005CC0CE019A9581159F4108F483CFA7CF46
:10165000C11536E5D30718F5C11545E5D40708F0DF
:1016600084C0C11584E5D80708F07AC09C2F9695F0
:1016700096959E0123703327C115D34508F462C0A7
:10168000C1E0D0E002C0CC0FDD1F2A95E2F730E2C6
:10169000939FC0011124C82BD92BDA685BCFC115E9
:1016A0008AE5D80778F4C11599E5D90708F068C02C
:1016B000C11528E5D20708F472CFDC2FCC27C06F04
:1016C000D06A48CFCE0190568115904208F067CF7E
:1016D0008D2F8F710E94FC0990E0982F8827882712
:1016E0009F719C012C2BE90149C0C55AD0E0C85913
:1016F000DE4FC881D0E0D0642DCFDF70D06A2ACF12
:10170000CE01E4E096958795EA95E1F783702C2F5A
:1017100026952695237040E2249F90011124382BB2
:101720008C2F8370C1E0D0E002C0CC0FDD1F8A9502
:10173000E2F7C22BD32BDC680DCFDC2FCC27C16F97
:10174000D06A08CFC1E0D0E002C0CC0FDD1F2A95DF
:10175000E2F720E2929FC0011124C82BD92BEBCFD6
:10176000DC2FCC27C46FD06AF5CE8C2F0E94FC09E9
:10177000C82FD0E0DC2FCC27CC27DF71D062EACE97
:101780008C2F8F700E94FC0934E0D695C7953A954E
:10179000E1F7CF709C2FEC01D069DCCEC9E3D0E03B
:1017A000D9CEC2EED0E0D6CEC6EED0E0D3CE0E94E7
:1017B0006609089580913C02811110923C020895BF
:1017C000809590913B02982390933B0208958091DD
:1017D00030029091FF01981301C008958F5F8770C8
:1017E000FACFB0E0A0E0E7EFFBE00C94A92B8C016E
:1017F000C090A502D090A602E090A702F090A802A7
:101800008091A1029091A202A091A302B091A402A2
:10181000C82AD92AEA2AFB2ACFE1D0E0BC2ED70178
:10182000C6010C2E04C0B695A795979587950A9486
:10183000D2F780FD09C0219788F7B12C8B2DCDB749
:10184000DEB7E9E00C94C52BB8018C2F0E943F0A4B
:101850000E945A0A019779F3F1CFCF93DF93EC01FD
:101860000E94F10BBE010E943F0A0E945A0ADF91BA
:10187000CF910895983088F5883078F548E0949FA6
:1018800090011124820F932F911D682F677023E020
:10189000969587952A95E1F725E0289FF001299FE5
:1018A000F00D1124EF52FE4F50E040E080E0219116
:1018B00030E0062E02C0369527950A94E2F7217093
:1018C0003327042E01C0220F0A94EAF7822B4F5FC0
:1018D0005F4F4530510559F7089580E008959830DD
:1018E000A8F5883098F548E0949F90011124820F64
:1018F000932F911D282F277041E001C0440F2A9596
:10190000EAF723E0969587952A95E1F725E0289F49
:10191000F001299FF00D1124EF52FE4F30E020E03E
:1019200070E05191DF011197CB01022E02C0969514
:1019300087950A94E2F7817081958527842385270E
:101940008C932F5F3F4F2530310559F70895FC01E7
:10195000808191810E942D0C92959F70963091F01C
:1019600058F4925F9F70923058F4803F19F030F431
:10197000883E30F481E008959A5FF4CF843FD1F33C
:1019800080E00895883EB0F3813FD1F7F3CFCF9345
:10199000DF93C0916907D0916A078A30C1F4209122
:1019A0006003CE0183569340622F70E00E948C2B1F
:1019B000281B822F66E00E94D72BC82FC15018F435
:1019C000DF91CF91089580E20E94C70CF7CF8D3050
:1019D000E9F4C356D34020916003622F70E0CE013A
:1019E0000E948C2B281B822F9E01280F311D211550
:1019F000344018F080E0D0E0C0E0C80FD11DCD59D0
:101A0000DC4FD0936A07C0936907DACF96E0FE01F6
:101A1000A3E6B7E001900D929A95E1F7803E08F4B5
:101A200058C086E0FE0111928A95E9F7C0916907D6
:101A3000D0916A0746E050E0BE0183E697E00E943D
:101A4000062C9E0123563340892B41F1C90146E003
:101A5000969587954A95E1F741E050E0BA0102C0BA
:101A6000660F771F8A95E2F7CB0160916103709151
:101A70006203862B972BB9016B5F7F4FE6E076956B
:101A80006795EA95E1F702C0440F551F6A95E2F7A2
:101A9000842B952B90936203809361032A5F3F4FC1
:101AA00040916003642F70E0C9010E948C2B481B99
:101AB000463010F4240F311D211574E0370710F063
:101AC00030E020E02D593C4F30936A07209369079E
:101AD00077CFF6E08F9FB00111246A5F754F46E023
:101AE00050E0CE010E94FD2BA1CFCF93DF93EC01FC
:101AF000FE018491811103C0DF91CF9108950E946E
:101B0000C70C2196F5CF80913B0290913A02892B28
:101B10008093C80190913C02992391F0892B809386
:101B2000C80120E08AEC91E0FC013191CF01311134
:101B30002F5FF1E0803D9F07B9F721110E94DA0B7A
:101B400048E050E062E372E088EC91E00E94062CED
:101B5000892BA9F088E0E8ECF1E0A2E3B2E0019083
:101B60000D928A95E1F7E0913A03F0913B033097AB
:101B700031F00280F381E02D88EC91E00995089521
:101B800090E080E00E94A20990E080E00E948C0931
:101B900010923A020E94830D08956093A5027093FB
:101BA000A6028093A7029093A8020E94C00D0895F8
:101BB0000F931F9341E050E060E070E004C0440FD9
:101BC000551F661F771F8A95D2F7CB01BA01609522
:101BD0007095809590950091A5021091A602209194
:101BE000A7023091A80260237123822393230E94CD
:101BF000CD0D1F910F910895909131028095892309
:101C000080933102282F277091F4282F082E000C82
:101C1000330B9217130659F09091840292FF07C07C
:101C20008595859585950E94D80D1092310208956D
:101C30000F931F9341E050E060E070E004C0440F58
:101C4000551F661F771F8A95D2F78091A502909144
:101C5000A602A091A702B091A8028A019B01082BBD
:101C6000192B2A2B3B2BC901B8010E94CD0D1F91C6
:101C70000F9108956093A1027093A2028093A30232
:101C80009093A4020E94C00D089510923B02EAECCA
:101C9000F1E086E0DF011D928A95E9F70E94C00D10
:101CA0000895AAE2B0E0E7E5FEE00C94AF2B85E5ED
:101CB00093E02091F100FC012193CF01F3E08D35F9
:101CC0009F07B9F780915603833009F470C0B8F4C8
:101CD000813009F447C0823009F4B1C08091E80036
:101CE00083FF7EC280915503909156039A3008F08D
:101CF00077C2E92FF0E0EA59F34D0C94F72B8A30C4
:101D000009F48CC08B3009F46FC0893039F78091A9
:101D10005503813219F78091590390915A03029724
:101D2000E8F68091E800877F8093E8008091E800E2
:101D300082FF38C09091F3008091F200029731F455
:101D40008091F100813011F0863021F48091F10012
:101D5000809348038091E8008B778093E8000E948D
:101D60005708BCCF80915503813A09F0B7CF8091D5
:101D7000E800877F8093E8008091590390915A038F
:101D8000892B61F468E089E493E070E00E94030924
:101D90008091E8008B778093E800A0CF60E090E02E
:101DA00080E0F3CF809153038111C0CF97CF809112
:101DB0005503813A09F092CF8091590390915A03CB
:101DC000892B09F08BCF8091E800877F8093E80012
:101DD0008091E80080FFFCCF80915F018093F1004B
:101DE0008091E8008E77B9CF80915503813209F058
:101DF00075CF8091590390915A03892B09F06ECFCA
:101E00008091E800877F8093E8000E9457088091C6
:101E1000570380935F010E94450E60CF8091550368
:101E2000813209F05BCF8091E800877F8093E800E2
:101E30000E94570880915803809347034FCF8091A9
:101E40005503813A09F04ACF8091E800877F80935B
:101E5000E8008091E80080FFFCCF80914703BECF6F
:101E6000803899F0823809F0BBC1809159038F7096
:101E7000873008F0B5C18093E9008091EB0085FBC5
:101E8000882780F91092E90006C080915103909153
:101E90005203911182609091E800977F9093E8003F
:101EA0008093F1001092F1008091E8008E7794C148
:101EB000882309F482C1823009F092C180915703CE
:101EC000811185C1809159038F702FEF280F263023
:101ED00008F086C18093E9002091EB0020FF77C1D4
:101EE000933031F48091EB0080628093EB006FC1FE
:101EF0009091EB0090619093EB0021E030E001C005
:101F0000220F8A95EAF72093EA001092EA00809166
:101F1000EB008860EACF811163C1109157031F77EE
:101F20008091E3008078812B8093E3008091E8002A
:101F3000877F8093E8000E9457088091E80080FF27
:101F4000FCCF8091E30080688093E30082E0111170
:101F500083E08093530344C18058823008F040C12D
:101F600080915703909158038C3D23E09207A1F58F
:101F700083E08A838AE289834FB7F894DE0113965F
:101F800020E03EE051E2E32FF0E050935700E4916F
:101F900020FF03C0E295EF703F5FEF708E2F90E05F
:101FA000EA30C0F0C7968D939D932F5F243159F787
:101FB0004FBF8091E800877F8093E8006AE270E07D
:101FC000CE0101960E9403098091E8008B778093EF
:101FD000E80006C1C096E7CF4091590350915A03DB
:101FE000292F33272330310509F444C078F52130F7
:101FF000310509F46FC08BE390E0EBE8F9E02230A3
:10200000310509F0EDC02091E800277F2093E8001A
:1020100020915B0330915C038217930708F49C01C5
:1020200040E02115310509F064C0411162C0809182
:10203000E80082FDC9CF80915303882329F28530BF
:1020400019F28091E80083FFF2CFBECF2132310533
:10205000A9F12232310509F0C3C04115510509F437
:1020600043C04130510509F0BBC082E390E0E9E193
:10207000F9E0C9CF992781309105C1F0009759F057
:10208000029709F0ADC0E8EDF9E0E4918E2F90E001
:10209000E8EDF9E007C0E2E0FAE0E4918E2F90E08D
:1020A000E2E0FAE0009709F49BC0ADCFE0EFF9E081
:1020B000E4918E2F90E0E0EFF9E0F4CF4115510567
:1020C00071F04130510509F08BC089E090E0E6EBFA
:1020D000F9E099CF82E190E0E6ECF9E094CF89E075
:1020E00090E0EDE9F9E08FCF80E490E0EBE4F9E0F7
:1020F0008ACF80915303882309F466CF853009F491
:1021000063CF8091E80083FD5FCF8091E80082FD7E
:102110008ECF8091E80080FF84CF9091F300809172
:10212000F2002115310519F08830910550F041E099
:10213000089709F040E08091E8008E778093E800EE
:1021400070CF44914093F1003196215031090196AE
:10215000E8CF803809F044C08091E800877F809301
:10216000E800809154038093F1009ECE811138C025
:10217000109157031230A0F58091E800877F80937B
:10218000E800109354030E945708112311F084E0D3
:1021900005C08091E30087FDFACF81E0809353036F
:1021A00042E061EC81E00E94760842E261EC82E06C
:1021B0000E9476088091530313C0809157038130A9
:1021C00079F481E0933009F080E08093520310921B
:1021D000E9008091E800877F8093E8000E9457081B
:1021E0008091E80083FF0AC08091E800877F809398
:1021F000E8008091EB0080628093EB00AA96E3E018
:102200000C94CB2B882321F00E94E00B0E94830DBD
:102210000895882339F090913B02982B90933B02CC
:102220000E94830D0895882391F19CEF980F913AB5
:1022300080F4EAECF1E020ED31E09191891303C0E4
:10224000DF0111971C922E173F07B9F70E94830DEB
:10225000089590E2980F983050F4877091E001C093
:10226000990F8A95EAF7892F0E94E00BEFCF9BE543
:10227000980F933028F490E080E00E94A20908951E
:10228000885A873120F490E080E00E948C090895FC
:10229000CF93C82F8823B1F08CEF8C0F813A00F5D3
:1022A000EAECF1E080ED91E0DF012D91C21761F0E1
:1022B0008A179B07D1F76C2F88EC91E00E94720976
:1022C0000E94830DCF9108952191C21303C0DF01B5
:1022D00011971C928E179F07B9F70E94830DEBCFC1
:1022E00080E28C0F883068F4C77021E030E001C0D4
:1022F000220FCA95EAF780913B02822B80933B0222
:10230000DFCFEBE5EC0FE33040F4F0E0E859FE4FAF
:10231000808190E00E94A209D5CFC85AC73190F6BB
:10232000EC2FF0E0EE0FFF1FE559FE4F8081918109
:102330000E948C09C7CFB0E0A0E0E1EAF1E10C9483
:10234000AA2B6C017B0164E670E088E70E94E72815
:10235000EC0197FD12C010E000E0F601E00FF11F64
:10236000849164E670E00E945529EC01892B29F4E0
:102370000F5F1F4F0E151F0581F70E94CC29CE015C
:10238000CDB7DEB7E8E00C94C62B80913603909170
:102390003703911103C091E089270895882369F0DC
:1023A00062E070E087E199E00E949B11892B19F0AF
:1023B0008091360308951092360380913603EBCF57
:1023C000CF93C0913603809137038823D1F00E94C8
:1023D0006609605A75418F4F9F4F60933203709327
:1023E00033038093340390933503C11108C062E036
:1023F00070E085E199E00E949B11892B29F0C09142
:1024000036038C2FCF91089581E080933603F7CF68
:102410008093430370934503609344038091530377
:10242000843001F582E08093E9008FEF9091E8001D
:10243000815095FD06C095ED9A95F1F70000811148
:10244000F5CF8091E80085FF0DC050E040E063E0EB
:1024500070E083E493E00E942D088091E8008E777D
:102460008093E8000895BC0184E00E94081208955A
:10247000BC0183E00E9408120895CF93DF93EC0122
:1024800081E08093E9008FEF9091E800815095FD05
:1024900006C095ED9A95F1F700008111F5CF809176
:1024A000E80085FF14C050E040E068E070E0CE0135
:1024B0000E942D088091E8008E778093E80088E0E4
:1024C000FE01A9E4B3E001900D928A95E1F7DF9156
:1024D000CF91089560915B0180912D0380FF20C012
:1024E00080915A0143E0849FC00111248F509D4F79
:1024F000539A2BB1277F3BB138605FB7F894FC014A
:10250000649FE00DF11D1124BF0168177907D1F414
:102510005FBF8FE594E00197F1F700C000000895D8
:1025200080915C0190915D0123E0829FF001112474
:10253000EF50FD4F8917A0F61182108212828F5F33
:102540003396F8CFFC014191CF01E8E03BB90000A0
:1025500000C047FF2BB9440F000000C000C000C0FE
:102560002BB900C0EA9591F7D0CFB0E0A0E0EBEB3B
:10257000F2E10C94A82B7C015B016A01809174024A
:1025800001E010E08A3010F40AE010E0C1E0D0E091
:10259000B501C701F6010995811104C021960C17F8
:1025A0001D072CF4CDB7DEB7EAE00C94C42BCC9F0A
:1025B0009001CD9F300D300D112490E080E045E377
:1025C0004A95F1F70000019682179307C1F7E0CF13
:1025D00080914702811110C08091D8008061809362
:1025E000D8008AE18A95F1F700C08091D90080FF78
:1025F0000AC081E08093470281E0909147029130C8
:1026000009F080E0089582E0809347020E94DD0790
:1026100010925303F1CF0E94E812882359F0E09101
:102620003A03F0913B03309729F00190F081E02DBF
:102630000995089580E008951F93CF93DF93182F95
:10264000EB010E944811209739F4812F0E94131149
:10265000DF91CF911F9108958FE99FE00197F1F7E6
:1026600000C000002197EFCF81110CC070E06623FD
:1026700031F060E089EA0E941C1381E0089560E077
:102680008AEAF9CF8130C9F770E0662319F060E07B
:102690008EE4F1CF60E08BE4EECF0E94450E2FEF89
:1026A00084E39CE0215080409040E1F700C00000AE
:1026B00088E19CE00FB6F894A895809360000FBE67
:1026C00090936000FFCFCF92DF92EF92FF926B0169
:1026D0007C010E94D409B701A60188E090E00E9425
:1026E000422CFF90EF90DF90CF900895B0E0A0E0F3
:1026F000ECE7F3E10C94A62BD82FC62F142F822ED3
:1027000000912D0300FF49C0E02FE695F0E0ED5366
:10271000FE4F80818093EE02802F8E7F8230D1F435
:10272000E42FF0E0EB5EF74F61113CC02491F22FF3
:10273000E22F00FF0FC080915C0190915D0133E0BA
:10274000839FD0011124AF50BD4F891708F49FC05B
:102750000E946A1280912E038D1308C080912F036E
:102760008C1304C080913003811729F08091F0020E
:1027700082608093F002D0932E03C0932F031093B6
:102780003003882051F060912D0370912E038091C9
:102790002F03909130030E946313CDB7DEB7ECE0B6
:1027A0000C94C22BE62EF12CE4919E2ECE2ED12C31
:1027B00026E0D29FC00111242FEF30E0B9010E9422
:1027C0008C2B8D2F90E0880F991FF5E5F69FA001C7
:1027D000F79F500D1124841B950BB82EBB0CB80E1F
:1027E000A9014E195F094C9DC0014D9D900D5C9D46
:1027F000900D1124F92FCB9DA0011124452F5527B1
:10280000D901A41BB50BAC9DA001AD9D500DBC9D85
:10281000500D1124D901AB19B1095D01AE9CD00155
:10282000AF9CB00DBE9CB00D1124AB2FBB272A1B53
:102830003B0B2C9DD0012D9DB00D3C9DB00D112466
:102840002B2F62307105A1F050F46115710509F468
:1028500070CF6130710581F0292FF52F6ACF643078
:10286000710569F080F06630710509F462CFF4CF2C
:102870002E2FE92FFB2F5DCF2E2FE52F5ACF292F9B
:10288000FE2FEB2F56CFE92FF92D252F52CF119682
:10289000EC9311972C931296FC9312978F5F1396DB
:1028A00054CFEDE2F3E0438121E1421B08F440E024
:1028B00021E0628181810E9476130895EDE2F3E0C8
:1028C000438121E1420F08F44FEF21E062818181D1
:1028D0000E9476130895EDE2F3E0628121E1621B2C
:1028E00008F460E021E0438181810E94761308951D
:1028F000EDE2F3E0628121E1620F08F46FEF21E085
:10290000438181810E9476130895EDE2F3E0818195
:1029100021E04381628188500E9476130895EDE2A0
:10292000F3E0818121E043816281885F0E94761318
:10293000089580913103882319F0815080933103E9
:1029400060912D0370912E0380912F03909130039D
:102950000E946313089580913103833018F48F5FD0
:102960008093310360912D0370912E0380912F038A
:10297000909130030E946313089580912D0380FF8E
:102980001EC08170826080932D038091F00281606F
:102990008093F002662351F060912D0370912E0315
:1029A00080912F03909130030E94631320E04091A7
:1029B000300360912F0380912E030E9476130895B7
:1029C00080912D038695815009F481E061E00E9499
:1029D000BD14089561E081E00E94BD140895EDE208
:1029E000F3E083E0808311828FEF828383831482FC
:1029F000AEEEB2E012968C911297836012968C9391
:102A000060817181828193810E9463130895CF93C5
:102A100084E090E00E941C2CC82F82E290E00E948B
:102A20001C2C982F8C2FCF910895A4E0B0E0EBE1FF
:102A3000F5E10C94AE2B40916802509169026091CF
:102A40006A0270916B022FB7F89480913F039091C6
:102A50004003A0914103B09142032FBF841B950B0B
:102A6000A60BB70B11E084369105A105B10590F1D5
:102A70000E94E812882399F10E9466096E5F7F4FD9
:102A80008F4F9F4F69837A838B839C838091210131
:102A9000909122018C5A9D4F4091200150E0453089
:102AA000510510F044E050E0BE016F5F7F4F0E947F
:102AB000132C84E090E00E94162B182F882351F0ED
:102AC0000E946609609368027093690280936A02AB
:102AD00090936B02812F2496E4E00C94CA2B0E9401
:102AE000660900917502109176022091770230916B
:102AF0007802600F711F821F931FC0CF4F925F92A9
:102B00006F927F928F929F92AF92BF92EF92FF92BD
:102B10000F931F93CF93DF937B01FB014080518084
:102B2000628073809FB7F89480903F039090400339
:102B3000A0904103B09042039FBF84189508A60857
:102B4000B708F4E68F169104A104B10418F4C1E0AB
:102B5000442329F1C82F880FDD0BFE0183E0EE0F1F
:102B6000FF1F8A95E1F7E050FF4F818192818C5AD7
:102B70009D4F408150E00417150708F4A801B901E2
:102B80000E94132CCE010E94162BC82F882339F0E7
:102B90000E946609F70160837183828393838C2F7F
:102BA000DF91CF911F910F91FF90EF90BF90AF9069
:102BB0009F908F907F906F905F904F900895A1E0CD
:102BC000B0E0E5EEF5E10C94AE2B809136038983FD
:102BD0002091670290E041E02817190609F440E0CF
:102BE00001E010E09E012F5F3F4F60E772E086E05A
:102BF0000E947E152196E4E00C94CA2BA8E0B0E078
:102C0000E4E0F6E10C94AE2B85E0EDE2F3E0DE01CA
:102C1000119601900D928A95E1F78091EE029091C4
:102C2000EF02A091F0028E839F83A88741E0888500
:102C3000811101C040E008E010E09E012F5F3F4F8E
:102C40006CE672E085E00E947E1581111092F00220
:102C50002896E4E00C94CA2B4F925F927F928F9259
:102C60009F92AF92BF92CF92DF92EF92FF920F931B
:102C70001F93CF93DF930F92CDB7DEB7C62E4A01D5
:102C80005901482E880F5508C2010E94162B782E34
:102C9000882309F480C0C20133E0880F991F3A9558
:102CA000E1F7FC01E050FF4F438150E04115510531
:102CB00011F041E050E080509F4FFC01648175812C
:102CC0006C5A7D4FCE0101960E94132CF401408175
:102CD0005181628173812FB7F89480913F03909165
:102CE0004003A0914103B09142032FBF841B950B79
:102CF000A60BB70B84369105A105B10540F4B701C9
:102D0000C8010E94B8099981891709F444C00C2CA4
:102D1000000CDD08C6010E94162B782E811113C00D
:102D2000712C872D0F90DF91CF911F910F91FF9004
:102D3000EF90DF90CF90BF90AF909F908F907F905B
:102D40005F904F900895C60123E0880F991F2A9540
:102D5000E1F7FC01E050FF4F438150E0E416F50637
:102D600008F4A70180509F4FFC01648175816C5A63
:102D70007D4FC5010E94132CB701C8010E94B809FC
:102D800099818913CDCF0E946609F4016083718314
:102D900082839383C6CFA701B801C5010E94132C7B
:102DA000C0CFA1E0B0E0E7EDF6E10C94A92BEE2452
:102DB000E394F12C0AE512E09E012F5F3F4F40E5BE
:102DC00052E063E082E00E942C16C82E882339F17D
:102DD00000E080E01DC0D0908702D00E2D2D30E0A5
:102DE000A90147565D4F7A01E1E0F0E0EC0FFD1FCD
:102DF000E00FF11D1081FA019081191BB12E1B14F7
:102E00009CF0912F17FD90E0191B111118C00F5F56
:102E1000909186020917F8F281110E94D70B8C2D30
:102E20002196E9E00C94C52BBA94F70180818F5F5D
:102E3000808360E08D2D0E9434138C2DE0CF1F5FC6
:102E4000F70180818150808361E08D2D0E943413D1
:102E50008C2DDBCFA4E0B0E0E0E3F7E10C94AA2BEB
:102E60006B0184E0E82EF12C05E512E09E012F5F56
:102E70003F4F4CE452E061E080E00E942C16882332
:102E800061F049815A816B817C8140934802509363
:102E9000490260934A0270934B024091480250915C
:102EA000490260914A0270914B02F60140835183BE
:102EB000628373832496E8E00C94C62B68EE7EEF61
:102EC00090E080E00E944E2C60E082E090E00E9462
:102ED000302C60E083E090E00E94302C1092A10240
:102EE0001092A2021092A3021092A40260E084E069
:102EF00090E00E94302C64E082E290E00E94302C4E
:102F000060E085E090E00E94302C60E086E090E098
:102F10000E94302C6FEF87E090E00E94302C40E060
:102F200050E0BA0188E090E00E94422C60E08DE021
:102F300090E00E94302C40E050E0BA0188E190E03F
:102F40000E94422C60E087E190E00E94302C40E03B
:102F500050E0BA018CE190E00E94422C70E060E009
:102F600080E290E00E944E2C40E050E0BA0188E1FF
:102F700090E00E94422C40E050E0BA018FE090E0E7
:102F80000E94422C40E050E0BA0183E190E00E94B0
:102F9000422C0895CF93C0918402C2FB992790F9E7
:102FA000981791F080FBC2F9C0938402609183026C
:102FB00084E090E00E94302C6C2F82E290E00E942E
:102FC000302C82E00E94FC0DCF9108951F920F9249
:102FD0000FB60F9211242F933F934F935F936F93EC
:102FE0007F938F939F93AF93BF93CF93DF93EF9391
:102FF000FF93D091E900DF708091EC00C82FC17081
:1030000080FDC0E81092E9008091F000877F8093F6
:10301000F00078940E94510E1092E9008091F00027
:1030200088608093F000CD2BCF70C093E900FF91B2
:10303000EF91DF91CF91BF91AF919F918F917F9150
:103040006F915F914F913F912F910F900FBE0F9015
:103050001F9018951F920F920FB60F9211242F9365
:103060003F934F935F936F937F938F939F93AF9310
:10307000BF93EF93FF938091E10082FF09C080919D
:10308000E20082FF05C08091E1008B7F8093E10028
:103090008091DA0080FF24C08091D80080FF20C09A
:1030A0008091DA008E7F8093DA008091D90080FFD2
:1030B0009DC080E189BD82E189BD09B400FEFDCFDC
:1030C00081E08093530380914603811109C00E94DF
:1030D000DD070E94A8088091E20084608093E200EE
:1030E0008091E10080FF17C08091E20080FF13C053
:1030F0008091E2008E7F8093E2008091E200806107
:103100008093E2008091D80080628093D80019BC3F
:1031100085E0809353038091E10084FF2BC0809170
:10312000E20084FF27C080E189BD82E189BD89B5C5
:10313000982F917080FFFBCF8091D8008F7D809376
:10314000D8008091E1008F7E8093E1008091E200C1
:103150008F7E8093E2008091E20081608093E200A4
:1031600080915403882309F447C084E0809353037B
:10317000809153038091E10083FF27C08091E2009A
:1031800083FF23C08091E100877F8093E10082E08C
:1031900080935303109254038091E1008E7F8093BB
:1031A000E1008091E2008E7F8093E2008091E20056
:1031B00080618093E20042E060E080E00E94760857
:1031C0008091F00088608093F000FF91EF91BF91B3
:1031D000AF919F918F917F916F915F914F913F91AF
:1031E0002F910F900FBE0F901F90189519BC109241
:1031F00053031092460374CF8091E30087FD93E060
:1032000090935303B5CF78941F921FB61F92112449
:103210008F939F93AF93BF9380913F03909140030F
:10322000A0914103B09142030196A11DB11D80936D
:103230003F0390934003A0934103B0934203BF9197
:10324000AF919F918F911F901FBE1F9018959C0169
:103250004FB7F89480913F0390914003A0914103B0
:10326000B09142034FBF821B930B08952FB7F89480
:1032700080913F0390914003A0914103B09142039C
:103280002FBF08950F931F93CF93DF93C62FD42F93
:10329000022FFC0182818823A9F060935F030E94C2
:1032A000361990935E0380935D03C77081E001C07F
:1032B000880FCA95EAF70E940911DF91CF911F91FB
:1032C0000F91089580915F03681334C080915D036E
:1032D00090915E030E942719883C910558F510E2F1
:1032E0001D0FCD17B9F080E28C0F883040F4C77005
:1032F00081E001C0880FCA95EAF70E9402111830D8
:1033000048F481E09D2F977001C0880F9A95EAF7E5
:103310000E94091170E060E0802F0E941C13183099
:1033200060F6D77081E001C0880FDA95EAF70E9455
:103330000211C3CFC77081E001C0880FCA95EAF7B8
:10334000F6CFA5E0B0E0E7EAF9E10C94A22B7C010E
:10335000FC0183819481892B31F0808191818923C3
:103360008F3F09F0DDC42596E0E10C94BE2B0E944E
:10337000F10B182F682F89819A810E946F0C698147
:103380007A81812F0E943F0A8C01843FFCE59F07D0
:1033900009F483C018F5893D9C4509F47AC00A3DBB
:1033A0008CE5180709F489C0083D9CE5190709F563
:1033B00026E241EE61EEC7010E944219809131027E
:1033C000877089F2F7018281882369F280918402F3
:1033D00082FFC9CF82E00E94FC0DC5CF863FECE59D
:1033E0009E0709F462C008F45CC0873F9C4509F45D
:1033F00060C0F7018281882309F4A3C410925F039F
:103400000430FDE51F0708F05BC00B3F2CE51207F9
:1034100030F4C80182509C45449708F05BC00E947C
:103420000715909384028093830201319CE519076C
:1034300009F42BC108F0A7C00930FCE51F0709F407
:103440000EC108F072C005303CE5130709F4FFC057
:1034500008F057C003309CE5190709F4EEC008F0E6
:10346000F2C08091830281600230FCE51F0709F4FD
:10347000E7C0609183021091840284E090E00E9492
:10348000302C612F82E290E00E94302C0E94450E89
:1034900095CF27E245EE65EE8ECF26E241EE60EE57
:1034A0008ACF27E245EE64EE86CF26E241EE62EE59
:1034B00082CF27E245EE66EE7ECF28E241E0EBCFF9
:1034C00002363DE5130709F4AACF063A8DE5180741
:1034D00009F4A5CF06312CE5120709F0B4C4809198
:1034E0003B028A7A91E009F490E09093D00169E27E
:1034F000811165E388EC91E00E9472090E94830DBE
:103500005DCF80918302806207302CE5120709F4B9
:1035100097C080918302806108303CE5130708F46E
:103520008FC08091830280648BC00D308CE51807BA
:1035300009F49FC0A0F4809183028E7F0B30ECE5EC
:103540001E0709F47DC0809183028C600C30FCE57D
:103550001F0708F475C0809183028D7F71C0809130
:1035600083028F7E0F302CE5120709F469C0809129
:103570008302877F00313CE5130708F461C0809126
:1035800083028F7D5DC00E3F8CE5180709F479C07A
:1035900058F50531ECE51E0709F481C098F48091D7
:1035A0008302837F03312CE5120709F449C008F434
:1035B00070C00E94450E90918302892F97FB87F976
:1035C00080583EC00C3F8CE5180709F444C008F051
:1035D00054C08091840281600B3FECE51E0709F026
:1035E00048CF8093840245CF0230FDE51F0709F4E0
:1035F00062C090F4809184028C7F01153DE5130731
:1036000081F398F180918402982F909591708E7F2C
:10361000892B90FB81F9E5CF02369DE5190709F466
:1036200050C0063AEDE51E0709F452C00330FDE52F
:103630001F0709F01ECF60E03FC0809183028260C7
:103640008093830216CF809183028460F9CF8091AA
:1036500083028860F5CF809184028260C2CF0E948D
:10366000450E809183028068EBCF80918402836055
:10367000B8CF809183028B7FE3CF809184028E7FCD
:10368000B0CF809184028D7FACCF809183028F7BFD
:10369000D7CF0E94450E809183028F77D1CF809142
:1036A000830282FB992790F921E0922790FB82F90F
:1036B00090FB83F9C5CF61E08EE090E00E94302C52
:1036C000D8CE90918302892F8F7E94FF8061B8CFEE
:1036D00090918302892F8E7F90FF8160B1CF80917E
:1036E000D00181110FC089E2EAECF1E020ED31E078
:1036F0009191891303C0DF0111971C922E173F0788
:10370000B9F7FCCE85E3F0CF816080932D0361E0B3
:1037100086950E94BD1452CE40EE54E16AEE74E1EB
:103720000E94CE094BCE4AEE54E160EE74E1F8CF30
:1037300045E854E16FE874E1F3CF41E554E16EE50B
:1037400074E1EECF61E081E0E4CF0E94450EEFEF3F
:10375000F4E32CE0E150F0402040E1F700C000002D
:1037600081E08093E00080E28093D8001092C9004D
:103770008FE19EE40197F1F700C0000087E090EB35
:10378000DC0180936B0790936C07A0936D07B09357
:103790006E0788E19CE00FB6F894A89580936000CE
:1037A0000FBE90936000FFCF8091840282FB882738
:1037B00080F991E089270E94CA17F7018281008170
:1037C0001181882309F445C0C8010E94F10BD82E4D
:1037D000682FC8010E946F0CB8018D2D0E943F0A0E
:1037E0000E945A0A8C01882EF701D280958092940B
:1037F0003FE09322809131028770C1F0BD2CDD2023
:10380000B1F0812F807F803421F080E2800F8830FA
:1038100068F08091840282FF09C082E00E94FC0D62
:10382000809131028770BB24B3948111B12CA12EF9
:10383000A2942FE0A222FBE0FA1508F476C0EA2D4C
:10384000F0E0E059F34D0C94F72B81E0B4CF80E029
:10385000B2CFC8010E943A0CD82EBECF212F2F70B4
:10386000C22E107F19F0C29490EFC922DD20B9F06A
:10387000CC2069F080E2800F883010F0811009C000
:1038800080913B02C82AC0923B020E94830D802F88
:103890004AC080913A02C82AC0923A02F6CF802FDD
:1038A0000E941311CC2009F440C0005E083010F0D3
:1038B000811004C08C2D0E94E00B06C0C094809142
:1038C0003A02C822C0923A020E94830D2EC0312FC4
:1038D0003F70C32E107F103219F0C29480EFC822BF
:1038E000882089F081E0881609F477C0DD2009F48A
:1038F00081C0992009F477C0F701858180FFC7CF87
:103900008F70858370C02091840222FD43C0DD202A
:10391000D9F1CC2039F080913B02C82AC0923B02F9
:103920000E94830D80E00E944811EA2DE850FF0BB1
:10393000349710F40E940B13BB20A9F08091310240
:1039400080FD11C0F70112828595859585950E94AD
:10395000180EC7010E94A1198091310285958595A5
:1039600085950E94D80D85E0F701DE011196019042
:103970000D928A95E1F709811A81C8010E943A0CDB
:10398000B8010E943F0AEFCC80E00E941311CC20C6
:1039900061F290CFDD20A1F090913C02892F8C291B
:1039A000911003C00E940911C0CFE1E09E12FACF2E
:1039B00022FFBBCF981709F4B8CF80933C02B5CF54
:1039C000911006C00E94DA0B8C2D0E940211ADCF1F
:1039D000F1E09F1609F4A9CFF5CFDD2031F025E005
:1039E000291508F4A2CF8C2DDDCF34E0391508F469
:1039F0009CCFEACF992041F3F9E38F128AC12FEFD0
:103A000037EE83E0215030408040E1F700C00000F5
:103A100080C1812F86958695837061F0813009F091
:103A200084CFC8019370D11002C090E080E00E9462
:103A30008C097BCFC8019370D11002C090E080E068
:103A40000E94A20972CF812F837009F066C0D11045
:103A50006CCF802F829586958770880F880F602F96
:103A60006F70462E512C712C612C082E04C0440C12
:103A7000551C661C771C0A94D2F740E050E0BA014E
:103A800004FF0FC04FE050E060E070E004C0440F5E
:103A9000551F661F771F8A95D2F740955095609500
:103AA0007095812F869586958370823019F1D8F4B0
:103AB0000091A1021091A2022091A3023091A402D0
:103AC000813069F04429552966297729CB01BA014B
:103AD00060237123822393230E943A0E26CF402A2B
:103AE000512A622A732ACB01BA01642975298629D1
:103AF0009729F2CF44295529662977290091A102F7
:103B00001091A2022091A3023091A402CB01BA012C
:103B10006027712782279327DFCF8695DD2011F05C
:103B2000812F8170882309F400CF802F829586959C
:103B30008770880F880F602F6F70462E512C712C64
:103B4000612C082E04C0440C551C661C771C0A947A
:103B5000D2F740E050E0BA0104FF0FC04FE050E060
:103B600060E070E004C0440F551F661F771F8A9500
:103B7000D2F74095509560957095812F86958695E2
:103B80008370823019F1D8F40091A5021091A60239
:103B90002091A7023091A802813069F0442955296B
:103BA00066297729CB01BA016023712382239323ED
:103BB0000E94CD0DBACE402A512A622A732ACB0127
:103BC000BA016429752986299729F2CF44295529F4
:103BD000662977290091A5021091A6022091A702DB
:103BE0003091A802CB01BA01602771278227932761
:103BF000DFCF1F70DD2029F0812F0E94180E802F4B
:103C0000D1CE802F0E940211812F0E94D80D8DCE1F
:103C1000802F92EF891609F43FC0981570F0E0EFFD
:103C20008E16D1F0F1EF8F1691F0DD2009F46CC003
:103C300091102DCE812F8F7133C023EF821699F111
:103C400034EF8312F2CF8091840282FD3FC0812F36
:103C50008F71DD20D1F224C0DD20C9F084E0891508
:103C600008F463CE1F7161E070E080E090E004C072
:103C7000660F771F881F991F1A95D2F70091A5022A
:103C80001091A6022091A7023091A802ADCF95E035
:103C9000991508F44ACEE6CF812F8F71D110B5CF98
:103CA0000E94180E42CE60E070E0CB01DD2009F4E6
:103CB0007FCF1F7161E070E080E090E004C0660F8C
:103CC000771F881F991F1A95D2F772CFDD2089F0D0
:103CD0001F71812F0E94180E8091840282FF07C0FD
:103CE000E8E01E9FC0011124836080933102812F80
:103CF000D7CF81E00E94FC0DF1E0F91508F015CE58
:103D000082E00E94FC0D11CE992039F0893309F42C
:103D100076CE802F0E94131108CE812F8F7175CF20
:103D200085E0DE01119601900D928A95E1F7F70189
:103D3000228189819A8121111ACB0E943A0C182F75
:103D40001ECB0631FCE51F0709F4C9CC80913B026C
:103D500082720A3C2CE5120709F4EFCC08F04BC044
:103D6000063C9CE5190709F4E3CC70F5043CFCE53E
:103D70001F0709F4D1CC08F0D6CC033C3CE513076F
:103D800009F01BCD80912D0380FFBECC8E7F8093E8
:103D90002D0360912D0370912E0380912F0390913C
:103DA00030030E9463138091F00281608093F002DF
:103DB0003FEF80E792E0315080409040E1F700C053
:103DC00000000E946A12FACA4BE654E168E774E107
:103DD000083C9CE5190709F4A3CC4FE854E165E8D9
:103DE00074E1093CECE51E0708F49ACC48E754E17D
:103DF0006BE674E195CC0E3CFCE51F0709F4A2CC00
:103E0000B8F449E954E16BEA74E10C3C3CE5130772
:103E100009F486CC4EE554E161E574E10D3C9CE586
:103E2000190708F47DCC4BEA54E169E974E178CCD8
:103E3000073DECE51E0708F4C1CA0E35FDE51F0776
:103E400009F4BCCABACC0B352DE5120709F4FDCC38
:103E500068F401158CE5180709F477CC0F3D1C4573
:103E600009F0ABCC0E945E170E944D130D35EDE5B5
:103E70001E0709F499CC08F4EACC083A1D45A1F3D1
:103E80009CCC1F93CF93DF938091FE01807F09F03C
:103E900049C08091FB01882309F444C0809130021D
:103EA000D091FF016091F9017091FA01A091FC019C
:103EB000B091FD01C62FC72316E0D81799F190E005
:103EC000109711F0CF3F19F401968770F6CF189F25
:103ED0009001199F300D1124F901E050FE4F4181EE
:103EE0004713F2CF40814613EFCF42814111ECCF0F
:103EF000438154814A1B5B0B483C510528F7809154
:103F0000FE018F7080618093FE01F901EB5FFD4F30
:103F100080818F708061808389EF91E00E94A11978
:103F20000E94E70BDF91CF911F910895A1E1B0E0CE
:103F3000ECE9FFE10C94A82B8C0185E0F801DE018F
:103F40001D9601900D928A95E1F7F801E28089EFC4
:103F5000A82E81E0B82E6091FC017091FD016115E1
:103F6000710509F426C19091F9014091FA01892F58
:103F700084238F3F09F41DC120813181C380D48007
:103F8000F090FB01F601E61BF70BFF2009F4DCC003
:103F90008091FE01582F507FE83CF10508F09FC04A
:103FA00051116BC0FE2C431314C0921312C0E110C8
:103FB00010C08F7080618093FE01C5010E94A1191D
:103FC0008091FE01F80185838F2D6196EAE00C94C3
:103FD000C42BC114D10429F0822F83238F3F09F011
:103FE00003C180E0F82FF170DF2E80FF3CC080918C
:103FF00030024091FF0156E0841315C02D873E87A3
:104000008D859E850E942D0C292F22952F702230A0
:10401000F0F0243018F59F70F1F0F8019581907F51
:10402000D1F4D12C1EC090E0589FF001599FF00DA3
:104030001124E050FE4F6181361306C060812613C3
:1040400003C06281E6120FC001968770D5CF9F70C2
:1040500011F0882331F3805E883018F3C8010E9484
:10406000A119FD2CB1CFEE2009F4AECF8091FE0155
:1040700081608093FE01F12CA7CF431306C09213F9
:1040800004C0F801EE2009F479C0C8010E94A70C11
:10409000882309F1EE20F9F08091FE01803270F062
:1040A0002091F9013091FA0138872F831986DB8638
:1040B000CA868C87CE0107960E94A11986E0F80176
:1040C000A9EFB1E001900D928A95E1F70E94411F9E
:1040D000FF24F39479CFC8010E94A119F9CF51119F
:1040E0000AC089EF91E00E94A11986E0F5011192C2
:1040F0008A95E9F7C0CF43130FC092130DC0E110AA
:104100000BC0F8018583C8010E94A11986E0F50162
:1041100011928A95E9F758CFC8010E94A70C88230D
:10412000D1F2EE20C1F28091FE01803238F220916E
:10413000F9013091FA013A8329831B82DD82CC8216
:104140008E83CE010196B8CFE83CF105F8F6FE2C3F
:10415000EE2009F243131FC092131DC08091FE018F
:1041600080FD10C0982F907F69F0F8018583903F03
:1041700031F0982F907F905F8F70892B8583C801D5
:104180000E94A11986E0F801A9EFB1E001900D921B
:104190008A95E1F719CFC8010E94A70C81118ECF33
:1041A0008091FE0181608093FE01C8010E94A119E7
:1041B0000BCFEE2009F48FCFC8010E94A70CF82E78
:1041C000882309F488CF86E0F801A9EFB1E00190D7
:1041D0000D928A95E1F78091F9019091FA010E9480
:1041E0002D0C0E94411FF0CE81E08E25FBCEA7E171
:1041F000B0E0EDEFF0E20C94AF2B4B8B5C8B6D8B52
:104200007E8B8F8B611110923A021A8A198A85E08F
:10421000FE017396DE011D9601900D928A95E1F7DD
:1042200086E0FE013D96DE01179601900D928A957B
:10423000E1F7CE0107960E94961F811112C086E019
:10424000FE013796DE01119601900D928A95E1F7F5
:104250008A859B85892B29F088859F8189238F3FBB
:1042600081F516E0809130029091FF01891317C00B
:104270006796E3E00C94CB2B96E0929FD001939F3E
:10428000B00D1124A050BE4FFE01319601900D9249
:104290009A95E1F78093FF010E94E70BE2CF819F9F
:1042A000C001112480509E4F0E94961F882301F365
:1042B0008091300290E001968770992780933002B8
:1042C000D1CF2091FF0130E0C90101968770992775
:1042D000409130024817190679F60E94450E109257
:1042E000FF011092300286E0E9EFF1E0DF011D925C
:1042F0008A95E9F7B6CFACE0B0E0E1E8F1E20C94E2
:10430000A52B8E010F5F1F4F88E0D8011D928A9563
:10431000E9F780E4C82E81E0D82EF12CE12CAA2404
:10432000A394B12C20E4822E21E0922EF6018191FB
:104330006F018F3F09F442C0F894E82FE295EF70C7
:10434000F0E021A18F70A50102C0440F551F8A958E
:10435000E2F7CA01922F982B91A392A1809589230D
:1043600082A3789400C0E8E3F1E0712C31E0219160
:104370002F3F09F46EC0A22FA295AF70B0E09096C7
:104380008C9190E02F7002C0959587952A95E2F761
:1043900080FD5FC0832F782A330F8E169F0639F772
:1043A000F601319780818F3F11F00E94E50950EAB4
:1043B0005A95F1F7F801EE0DFF1D70828FEFE81AA4
:1043C000F80A94E0E916F10409F0B0CF48E050E0B3
:1043D000B80189E792E00E94062C7C01892B41F00C
:1043E00088E0F801A9E7B2E001900D928A95E1F723
:1043F00010918202E114F10471F181E080933F0297
:104400000E94361990933E0280933D0280913D02B6
:1044100090913E020E942719059790F0E12FF0E05D
:10442000E857FD4F80917902808380917A028183E1
:1044300080917B02828380917C02838310923F0271
:1044400081E090E0E114F10451F02C96EDE00C9441
:10445000C12B80E0A0CF80913F028111D7CF0E9475
:10446000E812F82EE0918202882309F48EC01986A2
:104470001A861B861C860E2F10E008571D4F809150
:1044800074028A3008F04AC04AE257E1BE01675F11
:104490007F4FC8010E94B512882309F44FC041ED37
:1044A00056E1BE01675F7F4FC8010E94B5128823A5
:1044B00009F444C045E155E1BE01675F7F4FC80183
:1044C0000E94B5128823D1F14EEF55E1BE01675F1E
:1044D0007F4FC8010E94B512882381F14FED55E14D
:1044E000BE01675F7F4FC8010E94B512882331F17A
:1044F000109274028091810290E044E050E0BE018D
:10450000675F7F4F88579D4F0E94062C21E02093C4
:104510004602892B61F5F12C8F2D97CF80914002B7
:10452000909141020E942719843F914008F0ACCF3E
:1045300080914602811112C080E087CF8091740281
:104540008F3F29F08F5F809374028A3098F20E9427
:1045500036199093410280934002EACFFE013996CA
:1045600084E0DF011D928A95E9F710924602E091FE
:104570008102F0E0E857FD4F89859A85AB85BC85BF
:1045800080839183A283B383C7CFF0E0E857FD4FC8
:1045900084E0A5E5B2E001900D928A95E1F764E030
:1045A00070E085E592E00E94B80980935402409142
:1045B0009E0250E060919D0270E067567D4FCE01F3
:1045C00009960E94132C898580935A0261E070E05D
:1045D000CE0109960E94B80980935902C0905B02EF
:1045E000D0905C02E0905D02F0905E028091420209
:1045F00090914302A0914402B0914502C816D90699
:10460000EA06FB06D1F0C0924202D0924302E09249
:104610004402F09245020E94E81281110EC00E94ED
:104620006609C61AD70AE80AF90AC0927502D0923A
:104630007602E0927702F0927802809166028823F7
:10464000F1F080FF0DC080915F0290912D0380FFFB
:104650001DC0916090932D0360E086950E94BD146B
:104660008091660281FF09C020E040916202609162
:104670006102809160020E9476131092660280911E
:1046800067028823B9F00E94E01156CF9E7F909375
:104690002D038091F00281608093F002BFEFE0E78C
:1046A000F2E0B150E040F040E1F700C000000E94AD
:1046B0006A12D6CF0E94C5113FCF1F921FB61F921C
:1046C00011248F939F93AF93BF9380913E038111E9
:1046D00013C080913F0390914003A0914103B0919A
:1046E00042034196A11DB11D80933F039093400367
:1046F000A0934103B0934203BF91AF919F918F91DB
:104700001F901FBE1F901895CDB7DEB72F970FB61D
:10471000F894DEBF0FBECDBF85B7806885BF85B773
:10472000806885BF84B7877F84BF0FB6F894A8954B
:1047300080916000886180936000109260000FBEDD
:1047400080E890E00FB6F894809361009093610048
:104750000FBE83EE99E09093C7018093C6010E943B
:10476000DD070E94A8088091E20084608093E20047
:104770007894809153038823A1F01091E9001F7071
:104780009091EC00892F817090FD80E8182B109299
:10479000E9008091E80083FD0E94510E1F70109384
:1047A000E90082E084BD93E095BD9AEF97BD8093C8
:1047B0006E0010927502109276021092770210929B
:1047C000780223982B9A6E9A769805E00A95F1F76D
:1047D000000083B183FB882780F96E98769A10EAEF
:1047E0001A95F1F78093440180914401882309F4DC
:1047F00067C110925A018AE080935B010E94E8121F
:1048000081110E942A2A80914401811120C084E9EB
:104810008093400186E68093410187E980934201BD
:1048200086EC8093430188E0E0E6F1E0DE0111963A
:1048300001900D928A95E1F7FE013196A8E3B1E06F
:10484000CE01099621912D938E179F07D9F780915C
:10485000440194E0811190E09093820284E0891BEE
:104860008093810200E411E0F4E4EF2EF1E0FF2EEA
:10487000D8018D918D018F3F11F00E94E509E0165E
:10488000F106B1F708E311E0E0E4EE2EE1E0FE2EE0
:10489000F80181918F018F3F11F00E94E509E01628
:1048A000F106B1F788E0E8E8F2E0DF01082F1D9299
:1048B0000A95E9F7E9E7F2E0DF011D928A95E9F749
:1048C00090E080E00E942A2C883E9E4F11F00E94CA
:1048D0005E1782E090E00E941C2C809390020E9460
:1048E0000715909384028093830283E090E00E94F6
:1048F0001C2C682F70E090E080E00E943A0E82E06D
:104900008093E90280E8809360030E94E1286DE0D3
:1049100070E08FE393E00E949B11892BE9F5809171
:10492000E90263E070E081FDCFC08CE393E00E9478
:104930009B11892B89F56DE070E08CE293E00E9479
:104940009B11892B49F50E946609605A75418F4F6A
:104950009F4F60933203709333038093340390939B
:104960003503E3E6F3E080E094E0DF018C011D9283
:1049700001501040E1F7F0936A07E09369078FEF69
:104980009FEF909362038093610381E080933703EC
:10499000809336031092EA0280918502811139C01A
:1049A00090E080E00E942A2C883E9E4F21F00E94D9
:1049B0005E170E94EF1488E090E00E94242C609320
:1049C0002D0370932E0380932F03909330038091D7
:1049D000F00283608093F0026E7F71F40E94EF1406
:1049E00088E090E00E94242C60932D0370932E03A6
:1049F00080932F03909330030E94D40980912D035C
:104A000080FF04C060E086950E94BD1481E0809321
:104A100085029091440181E0982790939D02282F70
:104A2000291B209387029091440180939E029091CC
:104A300044018093860280914401811106C085EF74
:104A40008093520184EF8093510120915201E22F13
:104A5000E295EF70F0E061A12F7081E090E0AC0191
:104A600001C0440F2A95EAF7342F3095362331A33D
:104A700022A1242B22A320915101E22FE295EF7075
:104A8000F0E031A12F7001C0880F2A95EAF7982F26
:104A90009095932391A392A1892B82A38FE891E013
:104AA0000197F1F700C0000010919E026FE972E0DB
:104AB00042E551E081E5E82E81E0F82EFB012FC0B0
:104AC0008AE080935A0198CE89E393E030CFDA01EF
:104AD0002D91AD01822F82958F7090E0DC01909630
:104AE0008C9190E02F7002C0959587952A95E2F7FA
:104AF0008170D7019D917D01292F22952F7030E083
:104B0000D90190962C9130E09F7002C03595279581
:104B10009A95E2F790E020FD92E0892B81938E2F09
:104B2000861B8117A0F20E94E812811102C00E9428
:104B30002D2A85E491E090933B0380933A0368E14A
:104B4000862E912C70E4E72E8091530300E112E150
:104B5000853009F4C3C00E947B21D82E81110E94A8
:104B6000660928E832E0ABE9B1E041E952E010E043
:104B700000E0A02EF901F1909F018D91F822FA0139
:104B80008191AF018F1509F4B8C0B12CCC24C39426
:104B90008F25982F9C2109F4ABC00E94E81288232E
:104BA00099F0B982AA82FC2081E009F480E08B832D
:104BB0000E9436198160782F9D838C8349815A81A8
:104BC0006B818D810E94F720F801EF56FD4F8081A7
:104BD000C826C0820E94E812B12CF12C80919E025E
:104BE000B81608F4A1C0F1100E94D70B80913703CA
:104BF000882351F18091EB029091EC020E942719D9
:104C0000C29708F002C1209161033091620321151F
:104C1000310509F0F0C1809136038823A9F00E9484
:104C200066090091320310913303209134033091CF
:104C30003503601B710B820B930B6F3F7F4F8F4FC0
:104C40009F4710F40E94C511D11001C0F1100E94BD
:104C5000E0110E940B139091ED02891709F474CFB3
:104C60008093ED0271CF80915303843019F10E943B
:104C7000C51110923E030FB6F894A895809260007B
:104C80000FBEE092600083B7817F846083BF83B7EB
:104C9000816083BF7894889583B78E7F83BF0FB67A
:104CA000F894A895809160008861809360001092CC
:104CB00060000FBE80915203882381F00E947B2107
:104CC000E8E8F2E0ABE9B1E081919D91892309F038
:104CD00062C220E932E02E173F07B1F780915303FB
:104CE000853009F4C0CF0E94450E0E940B1333CFCC
:104CF000B394CC0CF8E0BF124CCF0F5F1F4F0830BD
:104D0000110509F036CF8FEF89878A871B860E94AD
:104D100036198160782F9D878C8749855A856B85E8
:104D20008D850E94F72056CF0B2D10E0F801EE5A2A
:104D3000FE4F8081E82FE295EF70F0E0E0A1F0E017
:104D40008F7002C0F595E7958A95E2F7E170D8017A
:104D5000AF5ABE4F2C91A22FA295AF70B0E09096A3
:104D60008C9190E02F7002C0959587952A95E2F777
:104D700080FD49C080E08E2BD801A156BD4FEC913B
:104D80009E2F93708917E9F1EE0FEE0FE82BEC934D
:104D9000C0909D02CB0CEF70F0E0ED55FE4F055634
:104DA0001D4F8081D8019C91890F8C9320E0843025
:104DB00064F0EC2DF0E0E756FD4F80818F5F80833B
:104DC00060E08C2D0E94341321E0F80180818D3F3A
:104DD00064F4EC2DF0E0E756FD4F80818150808334
:104DE00061E08C2D0E94341321E0D8018C91082EB3
:104DF000000C990B64E070E00E94E32BF8018083C3
:104E0000F22AB394EBCE82E0B6CF0E94361990938B
:104E1000EC028093EB0283E693E090936A07809321
:104E200069070E94E812882309F4A7C085ED97E07E
:104E30000E94750D8EEC97E00E94750D87EC97E04F
:104E40000E94750D8FEB97E00E94750D4091A502B1
:104E50005091A6026091A7027091A8028091A102D0
:104E60009091A202A091A302B091A402842B952B51
:104E7000A62BB72BAD0166277727E0E0411551053A
:104E80006105710519F0DB01CA01E0E1492F5A2FD4
:104E90006B2F7727411551056105710519F0E85F02
:104EA000DB01CA01AC01BD0134E0769567955795E9
:104EB00047953A95D1F7411551056105710519F0EE
:104EC000EC5FDB01CA01AC01BD0122E0769567957C
:104ED000579547952A95D1F74115510561057105FB
:104EE00019F0EE5FDB01CA01B695A79597958795F6
:104EF000892B8A2B8B2B09F0EF5F8CE797E0E7304B
:104F000038F4F0E0E458F34D0C94F72B87EB97E07E
:104F10000E94750D0E940B13182F8CE697E010FF6E
:104F200002C084E797E00E94750D8CE597E011FFC1
:104F300002C084E697E00E94750D8CE497E012FFB2
:104F400002C084E597E00E94750D809137038823A5
:104F500009F461CE58CE8FEA97E0DACF83EA97E082
:104F6000D7CF8EE997E0D4CF89E997E0D1CF8FE80A
:104F700097E0CECF87E897E0CBCF809169079091FB
:104F80006A07835693409C013C5F21303440B0F067
:104F900020E034E0281B390B4091610350916203FB
:104FA000ECE4F3E0280F391F61E070E0821793070B
:104FB00040F05093620340936103C7CF20E034E098
:104FC000EBCF1491DC01AD59BC4F0C91101781F05F
:104FD0001C93DC0116E0B695A7951A95E1F78B01B5
:104FE00002C0000F111FAA95E2F7D801402B5B2BDE
:104FF00001963196DBCF8091EA0261E070E0811189
:105000000ACE082F10E02B01082E02C0440C551CBC
:105010000A94E2F7A90144215521452B09F447C020
:105020009091E90290FD45C08295880F880F8074A9
:105030008093550198013695279520935801815CFE
:10504000809356011092590124E630E047E050E089
:1050500063E571E088E70E948429892B09F0DBCDA4
:10506000A80126E0440F551F2A95E1F78091E90237
:1050700080FD2DC04D595C4F04E610E020E430E087
:1050800060E488E70E94A529892B09F0C4CD0E941D
:10509000E011C201809590954090610350906203A9
:1050A000482259225092620340926103B4CD8F5F2F
:1050B000A8CF880F880F880F809355011092580150
:1050C000895F8093560187E080935901BDCFE9EA5B
:1050D000F2E0DF010E2D1D920A95E9F72BEB31E08E
:1050E0003F872E8703EB11E0AE85BF852D91BF87EB
:1050F000AE87F80121908F01240E352E311CC1019D
:105100008D599C4F1C01E22FF0E0E755FD4F30E038
:1051100020E097E0692E621ACC24C394022E01C0CD
:10512000CC0C0A94EAF7510190E0D5018D915D0114
:105130008C21662D691B6770762E062E000C770B6E
:10514000B82F01C0BB0F7A94EAF77B2E7195619559
:1051500071096770772701C086956A95EAF7782A02
:105160008081782A70829F5F9830F9F62F5F3F4FD9
:1051700031962830310569F6E3ECF1E02E853F8564
:10518000E217F30709F0B0CF04E610E020E430E0C6
:1051900049EA52E075CF09BD19BD09B400FEFDCF43
:1051A0008091D8008F7D8093D8008091E00082604C
:1051B0008093E0008091E00081FDFCCF0E94450ECD
:1051C0008DCD1092B9008CE08093B8000895B0E0C6
:1051D000A0E0EDEEF8E20C94A72BB82EEB010E94B4
:1051E00036196C01EE24E394F12CC431D10560F042
:1051F00025E0E22EF12CCF3FDC0731F0CE0164E157
:1052000070E00E948C2B7B0184EAA82E94E8992EF2
:105210001092BC00A092BC000E9436198C018091B3
:10522000BC0087FF0DC08091B900887F883001F1F4
:105230008091B900887F8031D9F00FEF1FEF09C04E
:105240000E943619801B910B8E159F0540F30EEFBF
:105250001FEFCF3FDC07E1F2C6010E9427198C1730
:105260009D07B0F2C801CDB7DEB7EBE00C94C32BBD
:10527000B092BB009092BC000E9436198C018091C4
:10528000BC0087FF0AC08091B900887F883111F087
:10529000803499F610E000E0E5CF0E943619801BBB
:1052A000910B8E159F0558F3D2CF0F931F93CF9379
:1052B000DF93EB018093BB0084E88093BC000E94E5
:1052C00036198C018091BC0087FF11C02091B90074
:1052D000287F81E090E0283211F490E080E0919501
:1052E00081959109DF91CF911F910F910895CF3F43
:1052F000DC0741F30E943619801B910B8C179D0728
:1053000008F38EEF9FEFEECFB0E0A0E0EAE8F9E21D
:105310000C94AA2B6B018A017901B9010E94E7283C
:10532000E6010C0D1D1DC017D10711F097FF08C035
:1053300024E92093BC00CDB7DEB7E8E00C94C62B7F
:10534000B70189910E945529EECFB0E0A0E0EBEAC9
:10535000F9E20C94AA2BC62F6A017901B8010E94C8
:10536000E72897FD0CC0B8018C2F0E945529E60153
:10537000EC0CFD1CCE15DF0511F097FF08C024E9E9
:105380002093BC00CDB7DEB7E8E00C94C62BB80183
:1053900089910E945529EECF84E98093BC0008953D
:1053A0008EE14A9B02C08150E1F74A9BFECF0895EF
:1053B0005A9880E28A95F1F75A9A0895FC013BE0E9
:1053C0003A95F1F798E020E080E031E040E14A953D
:1053D000F1F7880F4A9B02C08160232742E04A957B
:1053E000F1F7000040E14A95F1F7915079F790E12B
:1053F0009A95F1F799B132E03A95F1F7000040E162
:105400004A95F1F792FB992790F992272081920F04
:1054100090830895A1E0B0E0E0E1FAE20C94AC2BB7
:1054200019828C017C01E60EF11C0E151F0541F45A
:1054300081E09981911180E02196E6E00C94C82BDF
:105440000E94D029CE0101960E94DE29F8018193A5
:105450008F01EBCF529A5A9A089552985A9AEA9A23
:10546000E9E6F0E080818F7C808308956150770BBE
:1054700091E001C0990F6A95EAF720E031E09111BF
:1054800008C0222391F05A9A80E28A95F1F75A983F
:105490000895492F482339F05A9A232740E24A9524
:1054A000F1F79695ECCF5A98F9CF5A98EDCFFF9235
:1054B0000F931F93CF93DF93EC018C01060F111D07
:1054C000C017D10729F4CDB7DEB7E5E00C94C92B9E
:1054D000F9900E94D82968E08F2D0E94362AF0CFDB
:1054E0001F920F920FB60F9211240F931F932F93B9
:1054F0003F934F935F936F937F938F939F93AF935C
:10550000BF93EF93FF93CF93DF930F92CDB7DEB7A7
:1055100019820E94D029CE0101960E94DE29082F0F
:10552000069506950695282F22952570902F957043
:10553000290F922F937026952695920F9827977092
:105540008981982B09F05CC0083008F059C080E1CF
:105550008A95F1F75A9A529A82E08A95F1F700C03B
:105560005A9888E0089F80011124D801A050BF4FAD
:105570001696ED91FC9117973097A9F060919901DB
:1055800070919A0114962D913C911597260F371F13
:1055900011968D919C911297680F791F13964C91DB
:1055A00013978C910995F801E050FF4F63816623B2
:1055B00051F02091990130919A0184819581820F57
:1055C000931F0E94572A0E94D82980E18A95F1F7FB
:1055D0005A9852985A9A80E18A95F1F7F801E0506A
:1055E000FF4F6081662351F02091990130919A011B
:1055F00081819281820F931F0E940A2A0E94D029E2
:105600000F90DF91CF91FF91EF91BF91AF919F915B
:105610008F917F916F915F914F913F912F911F914A
:105620000F910F900FBE0F901F9018950F931F931F
:10563000CF93DF93EC0108970CF04CC0F894529A8A
:105640005A9885E08A95F1F700009C2F9695957001
:105650008C2F8570980F892F83709695969523E0EF
:10566000CC0FDD1F2A95E1F7980F8E01092B0E94C0
:10567000D82900C068E0802F0E94362A80E18A95F0
:10568000F1F752985A9A4A9B1EC087E090E04A99D7
:105690001CC0FE01E050FF4F63816623F9F02091AA
:1056A000990130919A0184819581820F931F0E9404
:1056B0000A2A811113C0529A5A9A7894DF91CF9195
:1056C0001F910F91089500C0DECF019729F4529ADF
:1056D0005A9A789480E0F2CF00C0D9CF0E94D029A6
:1056E00080E28A95F1F75A98529A80E18A95F1F70B
:1056F000C050DF4F6881662351F0209199013091AD
:105700009A0189819A81820F931F0E94572A0E94D1
:10571000D829789481E0D2CFAA1BBB1B51E107C0E6
:10572000AA1FBB1FA617B70710F0A61BB70B881F31
:10573000991F5A95A9F780959095BC01CD010895C0
:105740002F923F924F925F926F927F928F929F9291
:10575000AF92BF92CF92DF92EF92FF920F931F937F
:10576000CF93DF93CDB7DEB7CA1BDB0B0FB6F89430
:10577000DEBF0FBECDBF09942A88398848885F8470
:105780006E847D848C849B84AA84B984C884DF80E1
:10579000EE80FD800C811B81AA81B981CE0FD11DC5
:1057A0000FB6F894DEBF0FBECDBFED010895991B73
:1057B00079E004C0991F961708F0961B881F7A9508
:1057C000C9F78095089597FB072E16F4009407D02B
:1057D00077FD09D00E948C2B07FC05D03EF49095F4
:1057E00081959F4F0895709561957F4F0895EE0FB5
:1057F000FF1F0590F491E02D0994FB01DC0102C02C
:1058000005900D9241505040D8F70895FB01DC01FE
:1058100004C08D910190801921F441505040C8F787
:10582000881B990B0895FB01DC0102C001900D92C9
:1058300041505040D8F70895F999FECF92BD81BDEF
:10584000F89A992780B50895A6E1B0E044E050E0C9
:105850000C94562CA8E1B0E042E050E00C94562C99
:10586000262FF999FECF92BD81BDF89A019700B419
:10587000021639F01FBA20BD0FB6F894FA9AF99AB9
:105880000FBE08950396272F0E94312C0E94302CC2
:10589000252F0E94312C242F0C94312C0196272F78
:1058A0000E94312C0C94302CDC01CB01FC01F999C5
:1058B000FECF06C0F2BDE1BDF89A319600B40D925C
:1058C00041505040B8F70895F894FFCF300F580F6B
:1058D000F010580FF0108B0FAC0FF010A910B6108D
:1058E0002E1C2E1C671C671C091D951C951C951CE5
:1058F000231DF91D081E081E8627AB27AE27B127DA
:06590000B427B727BA2707
:10590600000000010000000000000004010000008B
:105916000000000105000000000000010600000074
:105926000407000000000000080B00000000000053
:10593600011300000000000032363534C697669425
:10594600F6F731330163093D1262093812331261E9
:1059560009F5F40021007F22000700140014140149
:10596600343536323331F7F6818283E200E900EAD4
:1059760000B500B600B700CD008301CC008A0192C5
:105986000194012102230224022502260227022A6B
:1059960002B300B4006F0070005402FCFCFF2FFC41
:1059A600FCFF2F00FF0100010000FFFF00000100C7
:1059B60001FF000008101820283038383028201839
:0659C600100800000100C2
:00000001FF
